sn_TDATA            sn_TKEEP    sn_TREADY   sn_TVALID   sn_TLAST    fwd_TREADY  inst_wr_addr    inst_wr_data        inst_wr_en
0000000000000000    00          0           0           0           0           0               0000000000000000    0
0000000000000000    00          0           0           0           0           0               0000000000000000    0

0000000000000000    00          0           0           0           0           0               002800000000000c    1
0000000000000000    00          0           0           0           0           1               0015000800000800    1
0000000000000000    00          0           0           0           0           2               0030000000000017    1
0000000000000000    00          0           0           0           0           3               0015000600000011    1
0000000000000000    00          0           0           0           0           4               0028000000000014    1
0000000000000000    00          0           0           0           0           5               0045040000001fff    1
0000000000000000    00          0           0           0           0           6               00b100000000000e    1
0000000000000000    00          0           0           0           0           7               0040000000000016    1
0000000000000000    00          0           0           0           0           8               00150001feedbeef    1
0000000000000000    00          0           0           0           0           9               000600000000ffff    1
0000000000000000    00          0           0           0           0           10              0006000000000000    1


DEADBEEFDEADBEEF    FF          1           1           0           0           0               0000000000000000    0
BEEFCAFEBEEFCAFE    FF          1           1           0           0           0               0000000000000000    0
CAFEDEADCAFEDEAD    FF          1           1           0           0           0               0000000000000000    0
0000000000000000    00          0           0           0           0           0               0000000000000000    0
0123456701234567    FF          1           1           0           1           0               0000000000000000    0
89ABCDEF89ABCDEF    FF          1           1           0           1           0               0000000000000000    0
5555555555555555    FF          1           1           0           1           0               0000000000000000    0
0000000000000000    00          0           0           0           1           0               0000000000000000    0
AAAAAAAAAAAAAAAA    FF          1           1           0           1           0               0000000000000000    0
0000000000000000    FF          1           1           0           1           0               0000000000000000    0
1111111111111111    FF          1           1           0           1           0               0000000000000000    0
0000000000000000    00          0           0           0           1           0               0000000000000000    0
2222222222222222    FF          1           1           0           0           0               0000000000000000    0
FFFFFFFFFFFFFFFF    FF          1           1           1           0           0               0000000000000000    0

203AB490E511203A    FF          1           1           0           0           0               0000000000000000    0
0000000000000000    00          0           0           0           1           0               0000000000000000    0
B490E51008004500    FF          1           1           0           1           0               0000000000000000    0
009C000040004011    FF          1           1           0           0           0               0000000000000000    0
0000000000000000    00          0           0           0           1           0               0000000000000000    0
08510A0A0EF71234    FF          1           1           0           1           0               0000000000000000    0
12340088ECBDFEED    FF          1           1           0           1           0               0000000000000000    0
BEEFFEEDBEEFFEED    FF          1           1           0           1           0               0000000000000000    0
BEEFFEEDBEEFFEED    FF          1           1           1           0           0               0000000000000000    0

DEADBEEFDEADBEEF    FF          1           1           0           0           0               0000000000000000    0
BEEFCAFEBEEFCAFE    FF          1           1           0           1           0               0000000000000000    0
CAFEDEADCAFEDEAD    FF          1           1           0           1           0               0000000000000000    0
0000000000000000    00          0           0           0           1           0               0000000000000000    0
0123456701234567    FF          1           1           0           0           0               0000000000000000    0
89ABCDEF89ABCDEF    FF          1           1           0           1           0               0000000000000000    0
5555555555555555    FF          1           1           0           0           0               0000000000000000    0
0000000000000000    00          0           0           0           1           0               0000000000000000    0
AAAAAAAAAAAAAAAA    FF          1           1           0           1           0               0000000000000000    0
0000000000000000    FF          1           1           0           1           0               0000000000000000    0
1111111111111111    FF          1           1           0           0           0               0000000000000000    0
0000000000000000    00          0           0           0           1           0               0000000000000000    0
2222222222222222    FF          1           1           0           1           0               0000000000000000    0
FFFFFFFFFFFFFFFF    FF          1           1           1           0           0               0000000000000000    0




DEADBEEFDEADBEEF    FF          1           1           0           0           0               0000000000000000    0
BEEFCAFEBEEFCAFE    FF          1           1           0           0           0               0000000000000000    0
CAFEDEADCAFEDEAD    FF          1           1           0           1           0               0000000000000000    0
0000000000000000    00          0           0           0           0           0               0000000000000000    0
0123456701234567    FF          1           1           0           1           0               0000000000000000    0
89ABCDEF89ABCDEF    FF          1           1           0           1           0               0000000000000000    0
5555555555555555    FF          1           1           0           1           0               0000000000000000    0
0000000000000000    00          0           0           0           1           0               0000000000000000    0
AAAAAAAAAAAAAAAA    FF          1           1           0           1           0               0000000000000000    0
0000000000000000    FF          1           1           0           1           0               0000000000000000    0
1111111111111111    FF          1           1           0           1           0               0000000000000000    0
0000000000000000    00          0           0           0           0           0               0000000000000000    0
2222222222222222    FF          1           1           0           1           0               0000000000000000    0
FFFFFFFFFFFFFFFF    FF          1           1           1           0           0               0000000000000000    0

203AB490E511203A    FF          1           1           0           1           0               0000000000000000    0
0000000000000000    00          0           0           0           1           0               0000000000000000    0
B490E51008004500    FF          1           1           0           1           0               0000000000000000    0
009C000040004011    FF          1           1           0           1           0               0000000000000000    0
0000000000000000    00          0           0           0           1           0               0000000000000000    0
08510A0A0EF71234    FF          1           1           0           1           0               0000000000000000    0
12340088ECBDFEED    FF          1           1           0           1           0               0000000000000000    0
BEEFFEEDBEEFFEED    FF          1           1           0           1           0               0000000000000000    0
BEEFFEEDBEEFFEED    FF          1           1           1           1           0               0000000000000000    0

DEADBEEFDEADBEEF    FF          1           1           0           1           0               0000000000000000    0
BEEFCAFEBEEFCAFE    FF          1           1           0           1           0               0000000000000000    0
CAFEDEADCAFEDEAD    FF          1           1           0           1           0               0000000000000000    0
0000000000000000    00          0           0           0           1           0               0000000000000000    0
0123456701234567    FF          1           1           0           1           0               0000000000000000    0
89ABCDEF89ABCDEF    FF          1           1           0           1           0               0000000000000000    0
5555555555555555    FF          1           1           0           1           0               0000000000000000    0
0000000000000000    00          0           0           0           0           0               0000000000000000    0
AAAAAAAAAAAAAAAA    FF          1           1           0           1           0               0000000000000000    0
0000000000000000    FF          1           1           0           1           0               0000000000000000    0
1111111111111111    FF          1           1           0           1           0               0000000000000000    0
0000000000000000    00          0           0           0           1           0               0000000000000000    0
2222222222222222    FF          1           1           0           0           0               0000000000000000    0
FFFFFFFFFFFFFFFF    FF          1           1           1           1           0               0000000000000000    0





DEADBEEFDEADBEEF    FF          1           1           0           0           0               0000000000000000    0
BEEFCAFEBEEFCAFE    FF          1           1           0           0           0               0000000000000000    0
CAFEDEADCAFEDEAD    FF          1           1           0           0           0               0000000000000000    0
0000000000000000    00          0           0           0           0           0               0000000000000000    0
0123456701234567    FF          1           1           0           0           0               0000000000000000    0
89ABCDEF89ABCDEF    FF          1           1           0           0           0               0000000000000000    0
5555555555555555    FF          1           1           0           0           0               0000000000000000    0
0000000000000000    00          0           0           0           0           0               0000000000000000    0
AAAAAAAAAAAAAAAA    FF          1           1           0           0           0               0000000000000000    0
0000000000000000    FF          1           1           0           0           0               0000000000000000    0
1111111111111111    FF          1           1           0           0           0               0000000000000000    0
0000000000000000    00          0           0           0           0           0               0000000000000000    0
2222222222222222    FF          1           1           0           0           0               0000000000000000    0
FFFFFFFFFFFFFFFF    FF          1           1           1           0           0               0000000000000000    0

203AB490E511203A    FF          1           1           0           0           0               0000000000000000    0
0000000000000000    00          0           0           0           0           0               0000000000000000    0
B490E51008004500    FF          1           1           0           0           0               0000000000000000    0
009C000040004011    FF          1           1           0           0           0               0000000000000000    0
0000000000000000    00          0           0           0           0           0               0000000000000000    0
08510A0A0EF71234    FF          1           1           0           0           0               0000000000000000    0
12340088ECBDFEED    FF          1           1           0           0           0               0000000000000000    0
BEEFFEEDBEEFFEED    FF          1           1           0           0           0               0000000000000000    0
BEEFFEEDBEEFFEED    FF          1           1           1           0           0               0000000000000000    0

DEADBEEFDEADBEEF    FF          1           1           0           0           0               0000000000000000    0
BEEFCAFEBEEFCAFE    FF          1           1           0           0           0               0000000000000000    0
CAFEDEADCAFEDEAD    FF          1           1           0           0           0               0000000000000000    0
0000000000000000    00          0           0           0           0           0               0000000000000000    0
0123456701234567    FF          1           1           0           0           0               0000000000000000    0
89ABCDEF89ABCDEF    FF          1           1           0           0           0               0000000000000000    0
5555555555555555    FF          1           1           0           0           0               0000000000000000    0
0000000000000000    00          0           0           0           0           0               0000000000000000    0
AAAAAAAAAAAAAAAA    FF          1           1           0           0           0               0000000000000000    0
0000000000000000    FF          1           1           0           0           0               0000000000000000    0
1111111111111111    FF          1           1           0           0           0               0000000000000000    0
0000000000000000    00          0           0           0           0           0               0000000000000000    0
2222222222222222    FF          1           1           0           0           0               0000000000000000    0
FFFFFFFFFFFFFFFF    FF          1           1           1           0           0               0000000000000000    0



0000000000000000    00          0           0           0           1           0               0000000000000000    0
0000000000000000    00          0           0           0           1           0               0000000000000000    0
0000000000000000    00          0           0           0           1           0               0000000000000000    0
0000000000000000    00          0           0           0           1           0               0000000000000000    0
0000000000000000    00          0           0           0           1           0               0000000000000000    0
0000000000000000    00          0           0           0           1           0               0000000000000000    0
0000000000000000    00          0           0           0           1           0               0000000000000000    0
0000000000000000    00          0           0           0           1           0               0000000000000000    0
0000000000000000    00          0           0           0           1           0               0000000000000000    0
0000000000000000    00          0           0           0           1           0               0000000000000000    0
0000000000000000    00          0           0           0           1           0               0000000000000000    0
0000000000000000    00          0           0           0           1           0               0000000000000000    0
0000000000000000    00          0           0           0           1           0               0000000000000000    0
0000000000000000    00          0           0           0           1           0               0000000000000000    0
0000000000000000    00          0           0           0           1           0               0000000000000000    0
0000000000000000    00          0           0           0           1           0               0000000000000000    0
0000000000000000    00          0           0           0           1           0               0000000000000000    0
0000000000000000    00          0           0           0           1           0               0000000000000000    0
0000000000000000    00          0           0           0           1           0               0000000000000000    0
0000000000000000    00          0           0           0           1           0               0000000000000000    0
0000000000000000    00          0           0           0           1           0               0000000000000000    0
0000000000000000    00          0           0           0           1           0               0000000000000000    0
0000000000000000    00          0           0           0           1           0               0000000000000000    0
0000000000000000    00          0           0           0           1           0               0000000000000000    0
0000000000000000    00          0           0           0           1           0               0000000000000000    0
0000000000000000    00          0           0           0           1           0               0000000000000000    0
0000000000000000    00          0           0           0           1           0               0000000000000000    0
0000000000000000    00          0           0           0           1           0               0000000000000000    0
0000000000000000    00          0           0           0           1           0               0000000000000000    0
0000000000000000    00          0           0           0           1           0               0000000000000000    0
0000000000000000    00          0           0           0           1           0               0000000000000000    0
0000000000000000    00          0           0           0           1           0               0000000000000000    0
0000000000000000    00          0           0           0           1           0               0000000000000000    0
0000000000000000    00          0           0           0           1           0               0000000000000000    0
0000000000000000    00          0           0           0           1           0               0000000000000000    0
0000000000000000    00          0           0           0           1           0               0000000000000000    0
0000000000000000    00          0           0           0           1           0               0000000000000000    0
0000000000000000    00          0           0           0           1           0               0000000000000000    0
0000000000000000    00          0           0           0           1           0               0000000000000000    0
0000000000000000    00          0           0           0           1           0               0000000000000000    0
0000000000000000    00          0           0           0           1           0               0000000000000000    0
0000000000000000    00          0           0           0           1           0               0000000000000000    0
0000000000000000    00          0           0           0           1           0               0000000000000000    0
0000000000000000    00          0           0           0           1           0               0000000000000000    0
0000000000000000    00          0           0           0           1           0               0000000000000000    0
0000000000000000    00          0           0           0           1           0               0000000000000000    0
0000000000000000    00          0           0           0           1           0               0000000000000000    0
0000000000000000    00          0           0           0           1           0               0000000000000000    0
0000000000000000    00          0           0           0           1           0               0000000000000000    0
0000000000000000    00          0           0           0           1           0               0000000000000000    0
0000000000000000    00          0           0           0           1           0               0000000000000000    0
0000000000000000    00          0           0           0           1           0               0000000000000000    0
0000000000000000    00          0           0           0           1           0               0000000000000000    0
0000000000000000    00          0           0           0           1           0               0000000000000000    0
0000000000000000    00          0           0           0           1           0               0000000000000000    0
0000000000000000    00          0           0           0           1           0               0000000000000000    0
0000000000000000    00          0           0           0           1           0               0000000000000000    0
0000000000000000    00          0           0           0           1           0               0000000000000000    0
0000000000000000    00          0           0           0           1           0               0000000000000000    0
0000000000000000    00          0           0           0           1           0               0000000000000000    0
0000000000000000    00          0           0           0           1           0               0000000000000000    0
0000000000000000    00          0           0           0           1           0               0000000000000000    0
0000000000000000    00          0           0           0           1           0               0000000000000000    0
0000000000000000    00          0           0           0           1           0               0000000000000000    0
