sn_TDATA    sn_TKEEP    sn_TREADY   sn_TVALID   sn_TLAST    fwd_TREADY  inst_wr_addr    inst_wr_data        inst_wr_en
00000000    00          0           0           0           0           0               0000000000000000    0
00000000    00          0           0           0           0           0               0000000000000000    0

00000000    00          0           0           0           0           0               002800000000000c    1
00000000    00          0           0           0           0           1               0015000800000800    1
00000000    00          0           0           0           0           2               0030000000000017    1
00000000    00          0           0           0           0           3               0015000600000011    1
00000000    00          0           0           0           0           4               0028000000000014    1
00000000    00          0           0           0           0           5               0045040000001fff    1
00000000    00          0           0           0           0           6               00b100000000000e    1
00000000    00          0           0           0           0           7               0040000000000016    1
00000000    00          0           0           0           0           8               00150001feedbeef    1
00000000    00          0           0           0           0           9               000600000000ffff    1
00000000    00          0           0           0           0           10              0006000000000000    1


DEADBEEF    FF          1           1           0           0           0               0000000000000000    0
BEEFCAFE    FF          1           1           0           0           0               0000000000000000    0
CAFEDEAD    FF          1           1           0           0           0               0000000000000000    0
00000000    00          0           0           0           0           0               0000000000000000    0
01234567    FF          1           1           0           1           0               0000000000000000    0
89ABCDEF    FF          1           1           0           1           0               0000000000000000    0
55555555    FF          1           1           0           1           0               0000000000000000    0
00000000    00          0           0           0           1           0               0000000000000000    0
AAAAAAAA    FF          1           1           0           1           0               0000000000000000    0
00000000    FF          1           1           0           1           0               0000000000000000    0
11111111    FF          1           1           0           1           0               0000000000000000    0
00000000    00          0           0           0           1           0               0000000000000000    0
22222222    FF          1           1           0           0           0               0000000000000000    0
FFFFFFFF    FF          1           1           1           0           0               0000000000000000    0

203AB490    FF          1           1           0           0           0               0000000000000000    0
E511203A    FF          1           1           0           0           0               0000000000000000    0
00000000    00          0           0           0           1           0               0000000000000000    0
B490E510    FF          1           1           0           1           0               0000000000000000    0
08004500    FF          1           1           0           1           0               0000000000000000    0
009C0000    FF          1           1           0           0           0               0000000000000000    0
40004011    FF          1           1           0           0           0               0000000000000000    0
00000000    00          0           0           0           1           0               0000000000000000    0
08510A0A    FF          1           1           0           1           0               0000000000000000    0
0EF71234    FF          1           1           0           1           0               0000000000000000    0
12340088    FF          1           1           0           1           0               0000000000000000    0
ECBDFEED    FF          1           1           0           1           0               0000000000000000    0
BEEFFEED    FF          1           1           0           1           0               0000000000000000    0
BEEFFEED    FF          1           1           0           1           0               0000000000000000    0
BEEFFEED    FF          1           1           0           0           0               0000000000000000    0
BEEFFEED    FF          1           1           1           0           0               0000000000000000    0

DEADBEEF    FF          1           1           0           0           0               0000000000000000    0
BEEFCAFE    FF          1           1           0           1           0               0000000000000000    0
CAFEDEAD    FF          1           1           0           1           0               0000000000000000    0
00000000    00          0           0           0           1           0               0000000000000000    0
01234567    FF          1           1           0           0           0               0000000000000000    0
89ABCDEF    FF          1           1           0           1           0               0000000000000000    0
55555555    FF          1           1           0           0           0               0000000000000000    0
00000000    00          0           0           0           1           0               0000000000000000    0
AAAAAAAA    FF          1           1           0           1           0               0000000000000000    0
00000000    FF          1           1           0           1           0               0000000000000000    0
11111111    FF          1           1           0           0           0               0000000000000000    0
00000000    00          0           0           0           1           0               0000000000000000    0
22222222    FF          1           1           0           1           0               0000000000000000    0
FFFFFFFF    FF          1           1           1           0           0               0000000000000000    0






DEADBEEF    FF          1           1           0           0           0               0000000000000000    0
BEEFCAFE    FF          1           1           0           0           0               0000000000000000    0
CAFEDEAD    FF          1           1           0           0           0               0000000000000000    0
00000000    00          0           0           0           0           0               0000000000000000    0
01234567    FF          1           1           0           1           0               0000000000000000    0
89ABCDEF    FF          1           1           0           1           0               0000000000000000    0
55555555    FF          1           1           0           1           0               0000000000000000    0
00000000    00          0           0           0           1           0               0000000000000000    0
AAAAAAAA    FF          1           1           0           1           0               0000000000000000    0
00000000    FF          1           1           0           1           0               0000000000000000    0
11111111    FF          1           1           0           1           0               0000000000000000    0
00000000    00          0           0           0           1           0               0000000000000000    0
22222222    FF          1           1           0           0           0               0000000000000000    0
FFFFFFFF    FF          1           1           1           0           0               0000000000000000    0

203AB490    FF          1           1           0           0           0               0000000000000000    0
E511203A    FF          1           1           0           0           0               0000000000000000    0
00000000    00          0           0           0           1           0               0000000000000000    0
B490E510    FF          1           1           0           1           0               0000000000000000    0
08004500    FF          1           1           0           1           0               0000000000000000    0
009C0000    FF          1           1           0           0           0               0000000000000000    0
40004011    FF          1           1           0           0           0               0000000000000000    0
00000000    00          0           0           0           1           0               0000000000000000    0
08510A0A    FF          1           1           0           1           0               0000000000000000    0
0EF71234    FF          1           1           0           1           0               0000000000000000    0
12340088    FF          1           1           0           1           0               0000000000000000    0
ECBDFEED    FF          1           1           0           1           0               0000000000000000    0
BEEFFEED    FF          1           1           0           1           0               0000000000000000    0
BEEFFEED    FF          1           1           0           1           0               0000000000000000    0
BEEFFEED    FF          1           1           0           0           0               0000000000000000    0
BEEFFEED    FF          1           1           1           0           0               0000000000000000    0

DEADBEEF    FF          1           1           0           0           0               0000000000000000    0
BEEFCAFE    FF          1           1           0           1           0               0000000000000000    0
CAFEDEAD    FF          1           1           0           1           0               0000000000000000    0
00000000    00          0           0           0           1           0               0000000000000000    0
01234567    FF          1           1           0           0           0               0000000000000000    0
89ABCDEF    FF          1           1           0           1           0               0000000000000000    0
55555555    FF          1           1           0           0           0               0000000000000000    0
00000000    00          0           0           0           1           0               0000000000000000    0
AAAAAAAA    FF          1           1           0           1           0               0000000000000000    0
00000000    FF          1           1           0           1           0               0000000000000000    0
11111111    FF          1           1           0           0           0               0000000000000000    0
00000000    00          0           0           0           1           0               0000000000000000    0
22222222    FF          1           1           0           1           0               0000000000000000    0
FFFFFFFF    FF          1           1           1           0           0               0000000000000000    0





DEADBEEF    FF          1           1           0           0           0               0000000000000000    0
BEEFCAFE    FF          1           1           0           0           0               0000000000000000    0
CAFEDEAD    FF          1           1           0           0           0               0000000000000000    0
00000000    00          0           0           0           0           0               0000000000000000    0
01234567    FF          1           1           0           1           0               0000000000000000    0
89ABCDEF    FF          1           1           0           1           0               0000000000000000    0
55555555    FF          1           1           0           1           0               0000000000000000    0
00000000    00          0           0           0           1           0               0000000000000000    0
AAAAAAAA    FF          1           1           0           1           0               0000000000000000    0
00000000    FF          1           1           0           1           0               0000000000000000    0
11111111    FF          1           1           0           1           0               0000000000000000    0
00000000    00          0           0           0           1           0               0000000000000000    0
22222222    FF          1           1           0           0           0               0000000000000000    0
FFFFFFFF    FF          1           1           1           0           0               0000000000000000    0

203AB490    FF          1           1           0           0           0               0000000000000000    0
E511203A    FF          1           1           0           0           0               0000000000000000    0
00000000    00          0           0           0           1           0               0000000000000000    0
B490E510    FF          1           1           0           1           0               0000000000000000    0
08004500    FF          1           1           0           1           0               0000000000000000    0
009C0000    FF          1           1           0           0           0               0000000000000000    0
40004011    FF          1           1           0           0           0               0000000000000000    0
00000000    00          0           0           0           1           0               0000000000000000    0
08510A0A    FF          1           1           0           1           0               0000000000000000    0
0EF71234    FF          1           1           0           1           0               0000000000000000    0
12340088    FF          1           1           0           1           0               0000000000000000    0
ECBDFEED    FF          1           1           0           1           0               0000000000000000    0
BEEFFEED    FF          1           1           0           1           0               0000000000000000    0
BEEFFEED    FF          1           1           0           1           0               0000000000000000    0
BEEFFEED    FF          1           1           0           0           0               0000000000000000    0
BEEFFEED    FF          1           1           1           0           0               0000000000000000    0

DEADBEEF    FF          1           1           0           0           0               0000000000000000    0
BEEFCAFE    FF          1           1           0           1           0               0000000000000000    0
CAFEDEAD    FF          1           1           0           1           0               0000000000000000    0
00000000    00          0           0           0           1           0               0000000000000000    0
01234567    FF          1           1           0           0           0               0000000000000000    0
89ABCDEF    FF          1           1           0           1           0               0000000000000000    0
55555555    FF          1           1           0           0           0               0000000000000000    0
00000000    00          0           0           0           1           0               0000000000000000    0
AAAAAAAA    FF          1           1           0           1           0               0000000000000000    0
00000000    FF          1           1           0           1           0               0000000000000000    0
11111111    FF          1           1           0           0           0               0000000000000000    0
00000000    00          0           0           0           1           0               0000000000000000    0
22222222    FF          1           1           0           1           0               0000000000000000    0
FFFFFFFF    FF          1           1           1           0           0               0000000000000000    0


00000000    00          0           0           0           0           0               0000000000000000    0
00000000    00          0           0           0           0           0               0000000000000000    0
00000000    00          0           0           0           0           0               0000000000000000    0
00000000    00          0           0           0           0           0               0000000000000000    0
00000000    00          0           0           0           0           0               0000000000000000    0
00000000    00          0           0           0           0           0               0000000000000000    0
00000000    00          0           0           0           0           0               0000000000000000    0
00000000    00          0           0           0           0           0               0000000000000000    0
00000000    00          0           0           0           1           0               0000000000000000    0

